{
  "_format": "hh-sol-artifact-1",
  "contractName": "EthLockVault",
  "sourceName": "contracts/EthLockVault.sol",
  "abi": [
    {
      "inputs": [],
      "stateMutability": "nonpayable",
      "type": "constructor"
    },
    {
      "inputs": [],
      "name": "ECDSAInvalidSignature",
      "type": "error"
    },
    {
      "inputs": [
        {
          "internalType": "uint256",
          "name": "length",
          "type": "uint256"
        }
      ],
      "name": "ECDSAInvalidSignatureLength",
      "type": "error"
    },
    {
      "inputs": [
        {
          "internalType": "bytes32",
          "name": "s",
          "type": "bytes32"
        }
      ],
      "name": "ECDSAInvalidSignatureS",
      "type": "error"
    },
    {
      "inputs": [
        {
          "internalType": "address",
          "name": "owner",
          "type": "address"
        }
      ],
      "name": "OwnableInvalidOwner",
      "type": "error"
    },
    {
      "inputs": [
        {
          "internalType": "address",
          "name": "account",
          "type": "address"
        }
      ],
      "name": "OwnableUnauthorizedAccount",
      "type": "error"
    },
    {
      "anonymous": false,
      "inputs": [
        {
          "indexed": true,
          "internalType": "bytes32",
          "name": "swapId",
          "type": "bytes32"
        },
        {
          "indexed": true,
          "internalType": "address",
          "name": "depositor",
          "type": "address"
        },
        {
          "indexed": false,
          "internalType": "string",
          "name": "toChain",
          "type": "string"
        },
        {
          "indexed": false,
          "internalType": "address",
          "name": "token",
          "type": "address"
        },
        {
          "indexed": false,
          "internalType": "uint256",
          "name": "amount",
          "type": "uint256"
        },
        {
          "indexed": false,
          "internalType": "string",
          "name": "recipient",
          "type": "string"
        }
      ],
      "name": "DepositInitiated",
      "type": "event"
    },
    {
      "anonymous": false,
      "inputs": [
        {
          "indexed": true,
          "internalType": "address",
          "name": "previousOwner",
          "type": "address"
        },
        {
          "indexed": true,
          "internalType": "address",
          "name": "newOwner",
          "type": "address"
        }
      ],
      "name": "OwnershipTransferred",
      "type": "event"
    },
    {
      "anonymous": false,
      "inputs": [
        {
          "indexed": true,
          "internalType": "bytes32",
          "name": "swapId",
          "type": "bytes32"
        },
        {
          "indexed": true,
          "internalType": "address",
          "name": "recipient",
          "type": "address"
        },
        {
          "indexed": false,
          "internalType": "uint256",
          "name": "amount",
          "type": "uint256"
        },
        {
          "indexed": false,
          "internalType": "address",
          "name": "token",
          "type": "address"
        }
      ],
      "name": "ReleaseExecuted",
      "type": "event"
    },
    {
      "inputs": [
        {
          "internalType": "string",
          "name": "toChain",
          "type": "string"
        },
        {
          "internalType": "address",
          "name": "token",
          "type": "address"
        },
        {
          "internalType": "string",
          "name": "recipient",
          "type": "string"
        },
        {
          "internalType": "uint256",
          "name": "amount",
          "type": "uint256"
        }
      ],
      "name": "deposit",
      "outputs": [
        {
          "internalType": "bytes32",
          "name": "",
          "type": "bytes32"
        }
      ],
      "stateMutability": "nonpayable",
      "type": "function"
    },
    {
      "inputs": [
        {
          "internalType": "bytes32",
          "name": "",
          "type": "bytes32"
        }
      ],
      "name": "deposits",
      "outputs": [
        {
          "internalType": "address",
          "name": "depositor",
          "type": "address"
        },
        {
          "internalType": "address",
          "name": "token",
          "type": "address"
        },
        {
          "internalType": "uint256",
          "name": "amount",
          "type": "uint256"
        },
        {
          "internalType": "string",
          "name": "toChain",
          "type": "string"
        },
        {
          "internalType": "string",
          "name": "recipient",
          "type": "string"
        },
        {
          "internalType": "bool",
          "name": "active",
          "type": "bool"
        }
      ],
      "stateMutability": "view",
      "type": "function"
    },
    {
      "inputs": [],
      "name": "nextSwapId",
      "outputs": [
        {
          "internalType": "uint256",
          "name": "",
          "type": "uint256"
        }
      ],
      "stateMutability": "view",
      "type": "function"
    },
    {
      "inputs": [],
      "name": "owner",
      "outputs": [
        {
          "internalType": "address",
          "name": "",
          "type": "address"
        }
      ],
      "stateMutability": "view",
      "type": "function"
    },
    {
      "inputs": [
        {
          "internalType": "bytes32",
          "name": "",
          "type": "bytes32"
        }
      ],
      "name": "processedSwaps",
      "outputs": [
        {
          "internalType": "bool",
          "name": "",
          "type": "bool"
        }
      ],
      "stateMutability": "view",
      "type": "function"
    },
    {
      "inputs": [
        {
          "internalType": "address",
          "name": "relayer",
          "type": "address"
        }
      ],
      "name": "registerRelayer",
      "outputs": [],
      "stateMutability": "nonpayable",
      "type": "function"
    },
    {
      "inputs": [
        {
          "internalType": "address",
          "name": "",
          "type": "address"
        }
      ],
      "name": "relayers",
      "outputs": [
        {
          "internalType": "bool",
          "name": "",
          "type": "bool"
        }
      ],
      "stateMutability": "view",
      "type": "function"
    },
    {
      "inputs": [
        {
          "internalType": "bytes32",
          "name": "swapId",
          "type": "bytes32"
        },
        {
          "internalType": "address",
          "name": "recipient",
          "type": "address"
        },
        {
          "internalType": "uint256",
          "name": "amount",
          "type": "uint256"
        },
        {
          "internalType": "address",
          "name": "token",
          "type": "address"
        },
        {
          "internalType": "bytes",
          "name": "signature",
          "type": "bytes"
        }
      ],
      "name": "release",
      "outputs": [],
      "stateMutability": "nonpayable",
      "type": "function"
    },
    {
      "inputs": [],
      "name": "renounceOwnership",
      "outputs": [],
      "stateMutability": "nonpayable",
      "type": "function"
    },
    {
      "inputs": [
        {
          "internalType": "address",
          "name": "newOwner",
          "type": "address"
        }
      ],
      "name": "transferOwnership",
      "outputs": [],
      "stateMutability": "nonpayable",
      "type": "function"
    }
  ],
  "bytecode": "0x60806040523480156200001157600080fd5b5033600073ffffffffffffffffffffffffffffffffffffffff168173ffffffffffffffffffffffffffffffffffffffff1603620000885760006040517f1e4fbdf70000000000000000000000000000000000000000000000000000000081526004016200007f9190620001a9565b60405180910390fd5b6200009981620000a060201b60201c565b50620001c6565b60008060009054906101000a900473ffffffffffffffffffffffffffffffffffffffff169050816000806101000a81548173ffffffffffffffffffffffffffffffffffffffff021916908373ffffffffffffffffffffffffffffffffffffffff1602179055508173ffffffffffffffffffffffffffffffffffffffff168173ffffffffffffffffffffffffffffffffffffffff167f8be0079c531659141344cd1fd0a4f28419497f9722a3daafe3b4186f6b6457e060405160405180910390a35050565b600073ffffffffffffffffffffffffffffffffffffffff82169050919050565b6000620001918262000164565b9050919050565b620001a38162000184565b82525050565b6000602082019050620001c0600083018462000198565b92915050565b611b9780620001d66000396000f3fe608060405234801561001057600080fd5b506004361061009e5760003560e01c80637fc905c7116100665780637fc905c71461014c5780638da5cb5b1461017c578063cba2fee51461019a578063f2fde38b146101b6578063fa8a1506146101d25761009e565b80633d4dff7b146100a35780635300f841146100d857806356f1612f1461010857806368eb515514610124578063715018a614610142575b600080fd5b6100bd60048036038101906100b89190610f4e565b610202565b6040516100cf96959493929190611080565b60405180910390f35b6100f260048036038101906100ed919061111b565b61039b565b6040516100ff9190611148565b60405180910390f35b610122600480360381019061011d919061111b565b6103bb565b005b61012c61041e565b6040516101399190611163565b60405180910390f35b61014a610424565b005b6101666004803603810190610161919061120f565b610438565b60405161017391906112c5565b60405180910390f35b610184610749565b60405161019191906112e0565b60405180910390f35b6101b460048036038101906101af9190611351565b610772565b005b6101d060048036038101906101cb919061111b565b6109ff565b005b6101ec60048036038101906101e79190610f4e565b610a85565b6040516101f99190611148565b60405180910390f35b60016020528060005260406000206000915090508060000160009054906101000a900473ffffffffffffffffffffffffffffffffffffffff16908060010160009054906101000a900473ffffffffffffffffffffffffffffffffffffffff16908060020154908060030180546102779061141a565b80601f01602080910402602001604051908101604052809291908181526020018280546102a39061141a565b80156102f05780601f106102c5576101008083540402835291602001916102f0565b820191906000526020600020905b8154815290600101906020018083116102d357829003601f168201915b5050505050908060040180546103059061141a565b80601f01602080910402602001604051908101604052809291908181526020018280546103319061141a565b801561037e5780601f106103535761010080835404028352916020019161037e565b820191906000526020600020905b81548152906001019060200180831161036157829003601f168201915b5050505050908060050160009054906101000a900460ff16905086565b60036020528060005260406000206000915054906101000a900460ff1681565b6103c3610aa5565b6001600360008373ffffffffffffffffffffffffffffffffffffffff1673ffffffffffffffffffffffffffffffffffffffff16815260200190815260200160002060006101000a81548160ff02191690831515021790555050565b60045481565b61042c610aa5565b6104366000610b2c565b565b60008473ffffffffffffffffffffffffffffffffffffffff166323b872dd3330856040518463ffffffff1660e01b81526004016104779392919061144b565b6020604051808303816000875af1158015610496573d6000803e3d6000fd5b505050506040513d601f19601f820116820180604052508101906104ba91906114ae565b50600033426004546040516020016104d493929190611544565b604051602081830303815290604052805190602001209050600460008154809291906104ff906115b0565b91905055506040518060c001604052803373ffffffffffffffffffffffffffffffffffffffff1681526020018773ffffffffffffffffffffffffffffffffffffffff16815260200184815260200189898080601f016020809104026020016040519081016040528093929190818152602001838380828437600081840152601f19601f82011690508083019250505050505050815260200186868080601f016020809104026020016040519081016040528093929190818152602001838380828437600081840152601f19601f820116905080830192505050505050508152602001600115158152506001600083815260200190815260200160002060008201518160000160006101000a81548173ffffffffffffffffffffffffffffffffffffffff021916908373ffffffffffffffffffffffffffffffffffffffff16021790555060208201518160010160006101000a81548173ffffffffffffffffffffffffffffffffffffffff021916908373ffffffffffffffffffffffffffffffffffffffff1602179055506040820151816002015560608201518160030190816106a891906117d3565b5060808201518160040190816106be91906117d3565b5060a08201518160050160006101000a81548160ff0219169083151502179055509050503373ffffffffffffffffffffffffffffffffffffffff16817fa0c31c69233126266d22a87bfbd2ff83380bd64247290fc36e4a0e8218d2127a8a8a8a888b8b604051610733969594939291906118e1565b60405180910390a3809150509695505050505050565b60008060009054906101000a900473ffffffffffffffffffffffffffffffffffffffff16905090565b6002600087815260200190815260200160002060009054906101000a900460ff16156107d3576040517f08c379a00000000000000000000000000000000000000000000000000000000081526004016107ca90611984565b60405180910390fd5b6000868686866040516020016107ec94939291906119c5565b604051602081830303815290604052805190602001209050600061080f82610bf0565b9050600061086a85858080601f016020809104026020016040519081016040528093929190818152602001838380828437600081840152601f19601f8201169050808301925050505050505083610c2690919063ffffffff16565b9050600360008273ffffffffffffffffffffffffffffffffffffffff1673ffffffffffffffffffffffffffffffffffffffff16815260200190815260200160002060009054906101000a900460ff166108f8576040517f08c379a00000000000000000000000000000000000000000000000000000000081526004016108ef90611a5f565b60405180910390fd5b6001600260008b815260200190815260200160002060006101000a81548160ff0219169083151502179055508573ffffffffffffffffffffffffffffffffffffffff1663a9059cbb89896040518363ffffffff1660e01b815260040161095f929190611a7f565b6020604051808303816000875af115801561097e573d6000803e3d6000fd5b505050506040513d601f19601f820116820180604052508101906109a291906114ae565b508773ffffffffffffffffffffffffffffffffffffffff16897fb4bd933f18b7bca6f924dd34c8e214374ee7a4f0ec4f5b65cf929b46ad2cf4c089896040516109ec929190611aa8565b60405180910390a3505050505050505050565b610a07610aa5565b600073ffffffffffffffffffffffffffffffffffffffff168173ffffffffffffffffffffffffffffffffffffffff1603610a795760006040517f1e4fbdf7000000000000000000000000000000000000000000000000000000008152600401610a7091906112e0565b60405180910390fd5b610a8281610b2c565b50565b60026020528060005260406000206000915054906101000a900460ff1681565b610aad610c52565b73ffffffffffffffffffffffffffffffffffffffff16610acb610749565b73ffffffffffffffffffffffffffffffffffffffff1614610b2a57610aee610c52565b6040517f118cdaa7000000000000000000000000000000000000000000000000000000008152600401610b2191906112e0565b60405180910390fd5b565b60008060009054906101000a900473ffffffffffffffffffffffffffffffffffffffff169050816000806101000a81548173ffffffffffffffffffffffffffffffffffffffff021916908373ffffffffffffffffffffffffffffffffffffffff1602179055508173ffffffffffffffffffffffffffffffffffffffff168173ffffffffffffffffffffffffffffffffffffffff167f8be0079c531659141344cd1fd0a4f28419497f9722a3daafe3b4186f6b6457e060405160405180910390a35050565b60007f19457468657265756d205369676e6564204d6573736167653a0a33320000000060005281601c52603c6000209050919050565b600080600080610c368686610c5a565b925092509250610c468282610cb6565b82935050505092915050565b600033905090565b60008060006041845103610c9f5760008060006020870151925060408701519150606087015160001a9050610c9188828585610e1a565b955095509550505050610caf565b60006002855160001b9250925092505b9250925092565b60006003811115610cca57610cc9611ad1565b5b826003811115610cdd57610cdc611ad1565b5b0315610e165760016003811115610cf757610cf6611ad1565b5b826003811115610d0a57610d09611ad1565b5b03610d41576040517ff645eedf00000000000000000000000000000000000000000000000000000000815260040160405180910390fd5b60026003811115610d5557610d54611ad1565b5b826003811115610d6857610d67611ad1565b5b03610dad578060001c6040517ffce698f7000000000000000000000000000000000000000000000000000000008152600401610da49190611163565b60405180910390fd5b600380811115610dc057610dbf611ad1565b5b826003811115610dd357610dd2611ad1565b5b03610e1557806040517fd78bce0c000000000000000000000000000000000000000000000000000000008152600401610e0c91906112c5565b60405180910390fd5b5b5050565b60008060007f7fffffffffffffffffffffffffffffff5d576e7357a4501ddfe92f46681b20a08460001c1115610e5a576000600385925092509250610f04565b600060018888888860405160008152602001604052604051610e7f9493929190611b1c565b6020604051602081039080840390855afa158015610ea1573d6000803e3d6000fd5b505050602060405103519050600073ffffffffffffffffffffffffffffffffffffffff168173ffffffffffffffffffffffffffffffffffffffff1603610ef557600060016000801b93509350935050610f04565b8060008060001b935093509350505b9450945094915050565b600080fd5b600080fd5b6000819050919050565b610f2b81610f18565b8114610f3657600080fd5b50565b600081359050610f4881610f22565b92915050565b600060208284031215610f6457610f63610f0e565b5b6000610f7284828501610f39565b91505092915050565b600073ffffffffffffffffffffffffffffffffffffffff82169050919050565b6000610fa682610f7b565b9050919050565b610fb681610f9b565b82525050565b6000819050919050565b610fcf81610fbc565b82525050565b600081519050919050565b600082825260208201905092915050565b60005b8381101561100f578082015181840152602081019050610ff4565b60008484015250505050565b6000601f19601f8301169050919050565b600061103782610fd5565b6110418185610fe0565b9350611051818560208601610ff1565b61105a8161101b565b840191505092915050565b60008115159050919050565b61107a81611065565b82525050565b600060c0820190506110956000830189610fad565b6110a26020830188610fad565b6110af6040830187610fc6565b81810360608301526110c1818661102c565b905081810360808301526110d5818561102c565b90506110e460a0830184611071565b979650505050505050565b6110f881610f9b565b811461110357600080fd5b50565b600081359050611115816110ef565b92915050565b60006020828403121561113157611130610f0e565b5b600061113f84828501611106565b91505092915050565b600060208201905061115d6000830184611071565b92915050565b60006020820190506111786000830184610fc6565b92915050565b600080fd5b600080fd5b600080fd5b60008083601f8401126111a3576111a261117e565b5b8235905067ffffffffffffffff8111156111c0576111bf611183565b5b6020830191508360018202830111156111dc576111db611188565b5b9250929050565b6111ec81610fbc565b81146111f757600080fd5b50565b600081359050611209816111e3565b92915050565b6000806000806000806080878903121561122c5761122b610f0e565b5b600087013567ffffffffffffffff81111561124a57611249610f13565b5b61125689828a0161118d565b9650965050602061126989828a01611106565b945050604087013567ffffffffffffffff81111561128a57611289610f13565b5b61129689828a0161118d565b935093505060606112a989828a016111fa565b9150509295509295509295565b6112bf81610f18565b82525050565b60006020820190506112da60008301846112b6565b92915050565b60006020820190506112f56000830184610fad565b92915050565b60008083601f8401126113115761131061117e565b5b8235905067ffffffffffffffff81111561132e5761132d611183565b5b60208301915083600182028301111561134a57611349611188565b5b9250929050565b60008060008060008060a0878903121561136e5761136d610f0e565b5b600061137c89828a01610f39565b965050602061138d89828a01611106565b955050604061139e89828a016111fa565b94505060606113af89828a01611106565b935050608087013567ffffffffffffffff8111156113d0576113cf610f13565b5b6113dc89828a016112fb565b92509250509295509295509295565b7f4e487b7100000000000000000000000000000000000000000000000000000000600052602260045260246000fd5b6000600282049050600182168061143257607f821691505b602082108103611445576114446113eb565b5b50919050565b60006060820190506114606000830186610fad565b61146d6020830185610fad565b61147a6040830184610fc6565b949350505050565b61148b81611065565b811461149657600080fd5b50565b6000815190506114a881611482565b92915050565b6000602082840312156114c4576114c3610f0e565b5b60006114d284828501611499565b91505092915050565b60008160601b9050919050565b60006114f3826114db565b9050919050565b6000611505826114e8565b9050919050565b61151d61151882610f9b565b6114fa565b82525050565b6000819050919050565b61153e61153982610fbc565b611523565b82525050565b6000611550828661150c565b601482019150611560828561152d565b602082019150611570828461152d565b602082019150819050949350505050565b7f4e487b7100000000000000000000000000000000000000000000000000000000600052601160045260246000fd5b60006115bb82610fbc565b91507fffffffffffffffffffffffffffffffffffffffffffffffffffffffffffffffff82036115ed576115ec611581565b5b600182019050919050565b7f4e487b7100000000000000000000000000000000000000000000000000000000600052604160045260246000fd5b60008190508160005260206000209050919050565b60006020601f8301049050919050565b600082821b905092915050565b6000600883026116897fffffffffffffffffffffffffffffffffffffffffffffffffffffffffffffffff8261164c565b611693868361164c565b95508019841693508086168417925050509392505050565b6000819050919050565b60006116d06116cb6116c684610fbc565b6116ab565b610fbc565b9050919050565b6000819050919050565b6116ea836116b5565b6116fe6116f6826116d7565b848454611659565b825550505050565b600090565b611713611706565b61171e8184846116e1565b505050565b5b818110156117425761173760008261170b565b600181019050611724565b5050565b601f8211156117875761175881611627565b6117618461163c565b81016020851015611770578190505b61178461177c8561163c565b830182611723565b50505b505050565b600082821c905092915050565b60006117aa6000198460080261178c565b1980831691505092915050565b60006117c38383611799565b9150826002028217905092915050565b6117dc82610fd5565b67ffffffffffffffff8111156117f5576117f46115f8565b5b6117ff825461141a565b61180a828285611746565b600060209050601f83116001811461183d576000841561182b578287015190505b61183585826117b7565b86555061189d565b601f19841661184b86611627565b60005b828110156118735784890151825560018201915060208501945060208101905061184e565b86831015611890578489015161188c601f891682611799565b8355505b6001600288020188555050505b505050505050565b82818337600083830152505050565b60006118c08385610fe0565b93506118cd8385846118a5565b6118d68361101b565b840190509392505050565b600060808201905081810360008301526118fc81888a6118b4565b905061190b6020830187610fad565b6119186040830186610fc6565b818103606083015261192b8184866118b4565b9050979650505050505050565b7f5377617020616c72656164792070726f63657373656400000000000000000000600082015250565b600061196e601683610fe0565b915061197982611938565b602082019050919050565b6000602082019050818103600083015261199d81611961565b9050919050565b6000819050919050565b6119bf6119ba82610f18565b6119a4565b82525050565b60006119d182876119ae565b6020820191506119e1828661150c565b6014820191506119f1828561152d565b602082019150611a01828461150c565b60148201915081905095945050505050565b7f496e76616c69642072656c61796572207369676e617475726500000000000000600082015250565b6000611a49601983610fe0565b9150611a5482611a13565b602082019050919050565b60006020820190508181036000830152611a7881611a3c565b9050919050565b6000604082019050611a946000830185610fad565b611aa16020830184610fc6565b9392505050565b6000604082019050611abd6000830185610fc6565b611aca6020830184610fad565b9392505050565b7f4e487b7100000000000000000000000000000000000000000000000000000000600052602160045260246000fd5b600060ff82169050919050565b611b1681611b00565b82525050565b6000608082019050611b3160008301876112b6565b611b3e6020830186611b0d565b611b4b60408301856112b6565b611b5860608301846112b6565b9594505050505056fea26469706673582212206f8b12a31aea926fc7030d229cdb113e5179997988a34228b00df152c75eb67464736f6c63430008180033",
  "linkReferences": {},
  "deployedLinkReferences": {}
}