{
  "_format": "hh-sol-artifact-1",
  "contractName": "EthLockVault",
  "sourceName": "contracts/EthLockVault.sol",
  "abi": [
    {
      "inputs": [],
      "stateMutability": "nonpayable",
      "type": "constructor"
    },
    {
      "inputs": [],
      "name": "ECDSAInvalidSignature",
      "type": "error"
    },
    {
      "inputs": [
        {
          "internalType": "uint256",
          "name": "length",
          "type": "uint256"
        }
      ],
      "name": "ECDSAInvalidSignatureLength",
      "type": "error"
    },
    {
      "inputs": [
        {
          "internalType": "bytes32",
          "name": "s",
          "type": "bytes32"
        }
      ],
      "name": "ECDSAInvalidSignatureS",
      "type": "error"
    },
    {
      "inputs": [
        {
          "internalType": "address",
          "name": "owner",
          "type": "address"
        }
      ],
      "name": "OwnableInvalidOwner",
      "type": "error"
    },
    {
      "inputs": [
        {
          "internalType": "address",
          "name": "account",
          "type": "address"
        }
      ],
      "name": "OwnableUnauthorizedAccount",
      "type": "error"
    },
    {
      "anonymous": false,
      "inputs": [
        {
          "indexed": true,
          "internalType": "uint256",
          "name": "swapId",
          "type": "uint256"
        },
        {
          "indexed": true,
          "internalType": "address",
          "name": "depositor",
          "type": "address"
        },
        {
          "indexed": false,
          "internalType": "uint256",
          "name": "amount",
          "type": "uint256"
        },
        {
          "indexed": false,
          "internalType": "string",
          "name": "toChain",
          "type": "string"
        },
        {
          "indexed": false,
          "internalType": "string",
          "name": "recipient",
          "type": "string"
        }
      ],
      "name": "DepositInitiated",
      "type": "event"
    },
    {
      "anonymous": false,
      "inputs": [
        {
          "indexed": true,
          "internalType": "address",
          "name": "previousOwner",
          "type": "address"
        },
        {
          "indexed": true,
          "internalType": "address",
          "name": "newOwner",
          "type": "address"
        }
      ],
      "name": "OwnershipTransferred",
      "type": "event"
    },
    {
      "anonymous": false,
      "inputs": [
        {
          "indexed": true,
          "internalType": "uint256",
          "name": "swapId",
          "type": "uint256"
        },
        {
          "indexed": true,
          "internalType": "address",
          "name": "recipient",
          "type": "address"
        },
        {
          "indexed": false,
          "internalType": "uint256",
          "name": "amount",
          "type": "uint256"
        }
      ],
      "name": "ReleaseExecuted",
      "type": "event"
    },
    {
      "inputs": [
        {
          "internalType": "string",
          "name": "toChain",
          "type": "string"
        },
        {
          "internalType": "string",
          "name": "recipient",
          "type": "string"
        }
      ],
      "name": "deposit",
      "outputs": [
        {
          "internalType": "uint256",
          "name": "",
          "type": "uint256"
        }
      ],
      "stateMutability": "payable",
      "type": "function"
    },
    {
      "inputs": [
        {
          "internalType": "uint256",
          "name": "",
          "type": "uint256"
        }
      ],
      "name": "deposits",
      "outputs": [
        {
          "internalType": "address",
          "name": "depositor",
          "type": "address"
        },
        {
          "internalType": "uint256",
          "name": "amount",
          "type": "uint256"
        },
        {
          "internalType": "string",
          "name": "toChain",
          "type": "string"
        },
        {
          "internalType": "string",
          "name": "recipient",
          "type": "string"
        },
        {
          "internalType": "bool",
          "name": "active",
          "type": "bool"
        }
      ],
      "stateMutability": "view",
      "type": "function"
    },
    {
      "inputs": [],
      "name": "nextSwapId",
      "outputs": [
        {
          "internalType": "uint256",
          "name": "",
          "type": "uint256"
        }
      ],
      "stateMutability": "view",
      "type": "function"
    },
    {
      "inputs": [],
      "name": "owner",
      "outputs": [
        {
          "internalType": "address",
          "name": "",
          "type": "address"
        }
      ],
      "stateMutability": "view",
      "type": "function"
    },
    {
      "inputs": [
        {
          "internalType": "uint256",
          "name": "",
          "type": "uint256"
        }
      ],
      "name": "processedSwaps",
      "outputs": [
        {
          "internalType": "bool",
          "name": "",
          "type": "bool"
        }
      ],
      "stateMutability": "view",
      "type": "function"
    },
    {
      "inputs": [
        {
          "internalType": "address",
          "name": "relayer",
          "type": "address"
        }
      ],
      "name": "registerRelayer",
      "outputs": [],
      "stateMutability": "nonpayable",
      "type": "function"
    },
    {
      "inputs": [
        {
          "internalType": "address",
          "name": "",
          "type": "address"
        }
      ],
      "name": "relayers",
      "outputs": [
        {
          "internalType": "bool",
          "name": "",
          "type": "bool"
        }
      ],
      "stateMutability": "view",
      "type": "function"
    },
    {
      "inputs": [
        {
          "internalType": "uint256",
          "name": "swapId",
          "type": "uint256"
        },
        {
          "internalType": "address",
          "name": "recipient",
          "type": "address"
        },
        {
          "internalType": "uint256",
          "name": "amount",
          "type": "uint256"
        },
        {
          "internalType": "bytes",
          "name": "signature",
          "type": "bytes"
        }
      ],
      "name": "release",
      "outputs": [],
      "stateMutability": "nonpayable",
      "type": "function"
    },
    {
      "inputs": [],
      "name": "renounceOwnership",
      "outputs": [],
      "stateMutability": "nonpayable",
      "type": "function"
    },
    {
      "inputs": [
        {
          "internalType": "address",
          "name": "newOwner",
          "type": "address"
        }
      ],
      "name": "transferOwnership",
      "outputs": [],
      "stateMutability": "nonpayable",
      "type": "function"
    }
  ],
  "bytecode": "0x60806040523480156200001157600080fd5b5033600073ffffffffffffffffffffffffffffffffffffffff168173ffffffffffffffffffffffffffffffffffffffff1603620000885760006040517f1e4fbdf70000000000000000000000000000000000000000000000000000000081526004016200007f9190620001a9565b60405180910390fd5b6200009981620000a060201b60201c565b50620001c6565b60008060009054906101000a900473ffffffffffffffffffffffffffffffffffffffff169050816000806101000a81548173ffffffffffffffffffffffffffffffffffffffff021916908373ffffffffffffffffffffffffffffffffffffffff1602179055508173ffffffffffffffffffffffffffffffffffffffff168173ffffffffffffffffffffffffffffffffffffffff167f8be0079c531659141344cd1fd0a4f28419497f9722a3daafe3b4186f6b6457e060405160405180910390a35050565b600073ffffffffffffffffffffffffffffffffffffffff82169050919050565b6000620001918262000164565b9050919050565b620001a38162000184565b82525050565b6000602082019050620001c0600083018462000198565b92915050565b611a7e80620001d66000396000f3fe6080604052600436106100915760003560e01c80637a9b486d116100595780637a9b486d1461017b5780638da5cb5b146101ab578063b02c43d0146101d6578063cf49c7ed14610217578063f2fde38b1461024057610091565b80630ace6d9c146100965780635300f841146100d357806356f1612f1461011057806368eb515514610139578063715018a614610164575b600080fd5b3480156100a257600080fd5b506100bd60048036038101906100b89190610ee8565b610269565b6040516100ca9190610f30565b60405180910390f35b3480156100df57600080fd5b506100fa60048036038101906100f59190610fa9565b610289565b6040516101079190610f30565b60405180910390f35b34801561011c57600080fd5b5061013760048036038101906101329190610fa9565b6102a9565b005b34801561014557600080fd5b5061014e61030c565b60405161015b9190610fe5565b60405180910390f35b34801561017057600080fd5b50610179610312565b005b61019560048036038101906101909190611065565b610326565b6040516101a29190610fe5565b60405180910390f35b3480156101b757600080fd5b506101c0610567565b6040516101cd91906110f5565b60405180910390f35b3480156101e257600080fd5b506101fd60048036038101906101f89190610ee8565b610590565b60405161020e9594939291906111a0565b60405180910390f35b34801561022357600080fd5b5061023e60048036038101906102399190611257565b610703565b005b34801561024c57600080fd5b5061026760048036038101906102629190610fa9565b6109b9565b005b60026020528060005260406000206000915054906101000a900460ff1681565b60036020528060005260406000206000915054906101000a900460ff1681565b6102b1610a3f565b6001600360008373ffffffffffffffffffffffffffffffffffffffff1673ffffffffffffffffffffffffffffffffffffffff16815260200190815260200160002060006101000a81548160ff02191690831515021790555050565b60045481565b61031a610a3f565b6103246000610ac6565b565b600080341161036a576040517f08c379a00000000000000000000000000000000000000000000000000000000081526004016103619061132b565b60405180910390fd5b60006004549050600460008154809291906103849061137a565b91905055506040518060a001604052803373ffffffffffffffffffffffffffffffffffffffff16815260200134815260200187878080601f016020809104026020016040519081016040528093929190818152602001838380828437600081840152601f19601f82011690508083019250505050505050815260200185858080601f016020809104026020016040519081016040528093929190818152602001838380828437600081840152601f19601f820116905080830192505050505050508152602001600115158152506001600083815260200190815260200160002060008201518160000160006101000a81548173ffffffffffffffffffffffffffffffffffffffff021916908373ffffffffffffffffffffffffffffffffffffffff1602179055506020820151816001015560408201518160020190816104ca91906115fd565b5060608201518160030190816104e091906115fd565b5060808201518160040160006101000a81548160ff0219169083151502179055509050503373ffffffffffffffffffffffffffffffffffffffff16817fb35a3204c9587fbc26a3045a32ea30ce307aa95813606801719fb3bff5e9e508348989898960405161055395949392919061170b565b60405180910390a380915050949350505050565b60008060009054906101000a900473ffffffffffffffffffffffffffffffffffffffff16905090565b60016020528060005260406000206000915090508060000160009054906101000a900473ffffffffffffffffffffffffffffffffffffffff16908060010154908060020180546105df90611420565b80601f016020809104026020016040519081016040528092919081815260200182805461060b90611420565b80156106585780601f1061062d57610100808354040283529160200191610658565b820191906000526020600020905b81548152906001019060200180831161063b57829003601f168201915b50505050509080600301805461066d90611420565b80601f016020809104026020016040519081016040528092919081815260200182805461069990611420565b80156106e65780601f106106bb576101008083540402835291602001916106e6565b820191906000526020600020905b8154815290600101906020018083116106c957829003601f168201915b5050505050908060040160009054906101000a900460ff16905085565b6002600086815260200190815260200160002060009054906101000a900460ff1615610764576040517f08c379a000000000000000000000000000000000000000000000000000000000815260040161075b906117a0565b60405180910390fd5b600085858560405160200161077b93929190611829565b604051602081830303815290604052805190602001209050600061079e82610b8a565b905060006107f985858080601f016020809104026020016040519081016040528093929190818152602001838380828437600081840152601f19601f8201169050808301925050505050505083610bc090919063ffffffff16565b9050600360008273ffffffffffffffffffffffffffffffffffffffff1673ffffffffffffffffffffffffffffffffffffffff16815260200190815260200160002060009054906101000a900460ff16610887576040517f08c379a000000000000000000000000000000000000000000000000000000000815260040161087e906118b2565b60405180910390fd5b6001600260008a815260200190815260200160002060006101000a81548160ff02191690831515021790555060008773ffffffffffffffffffffffffffffffffffffffff16876040516108d990611903565b60006040518083038185875af1925050503d8060008114610916576040519150601f19603f3d011682016040523d82523d6000602084013e61091b565b606091505b505090508061095f576040517f08c379a000000000000000000000000000000000000000000000000000000000815260040161095690611964565b60405180910390fd5b8773ffffffffffffffffffffffffffffffffffffffff16897fc951bd951e410cab64ebb6d00f4c9e158119ab3c5d9f61eba24d35e8d12fae90896040516109a69190610fe5565b60405180910390a3505050505050505050565b6109c1610a3f565b600073ffffffffffffffffffffffffffffffffffffffff168173ffffffffffffffffffffffffffffffffffffffff1603610a335760006040517f1e4fbdf7000000000000000000000000000000000000000000000000000000008152600401610a2a91906110f5565b60405180910390fd5b610a3c81610ac6565b50565b610a47610bec565b73ffffffffffffffffffffffffffffffffffffffff16610a65610567565b73ffffffffffffffffffffffffffffffffffffffff1614610ac457610a88610bec565b6040517f118cdaa7000000000000000000000000000000000000000000000000000000008152600401610abb91906110f5565b60405180910390fd5b565b60008060009054906101000a900473ffffffffffffffffffffffffffffffffffffffff169050816000806101000a81548173ffffffffffffffffffffffffffffffffffffffff021916908373ffffffffffffffffffffffffffffffffffffffff1602179055508173ffffffffffffffffffffffffffffffffffffffff168173ffffffffffffffffffffffffffffffffffffffff167f8be0079c531659141344cd1fd0a4f28419497f9722a3daafe3b4186f6b6457e060405160405180910390a35050565b60007f19457468657265756d205369676e6564204d6573736167653a0a33320000000060005281601c52603c6000209050919050565b600080600080610bd08686610bf4565b925092509250610be08282610c50565b82935050505092915050565b600033905090565b60008060006041845103610c395760008060006020870151925060408701519150606087015160001a9050610c2b88828585610db4565b955095509550505050610c49565b60006002855160001b9250925092505b9250925092565b60006003811115610c6457610c63611984565b5b826003811115610c7757610c76611984565b5b0315610db05760016003811115610c9157610c90611984565b5b826003811115610ca457610ca3611984565b5b03610cdb576040517ff645eedf00000000000000000000000000000000000000000000000000000000815260040160405180910390fd5b60026003811115610cef57610cee611984565b5b826003811115610d0257610d01611984565b5b03610d47578060001c6040517ffce698f7000000000000000000000000000000000000000000000000000000008152600401610d3e9190610fe5565b60405180910390fd5b600380811115610d5a57610d59611984565b5b826003811115610d6d57610d6c611984565b5b03610daf57806040517fd78bce0c000000000000000000000000000000000000000000000000000000008152600401610da691906119cc565b60405180910390fd5b5b5050565b60008060007f7fffffffffffffffffffffffffffffff5d576e7357a4501ddfe92f46681b20a08460001c1115610df4576000600385925092509250610e9e565b600060018888888860405160008152602001604052604051610e199493929190611a03565b6020604051602081039080840390855afa158015610e3b573d6000803e3d6000fd5b505050602060405103519050600073ffffffffffffffffffffffffffffffffffffffff168173ffffffffffffffffffffffffffffffffffffffff1603610e8f57600060016000801b93509350935050610e9e565b8060008060001b935093509350505b9450945094915050565b600080fd5b600080fd5b6000819050919050565b610ec581610eb2565b8114610ed057600080fd5b50565b600081359050610ee281610ebc565b92915050565b600060208284031215610efe57610efd610ea8565b5b6000610f0c84828501610ed3565b91505092915050565b60008115159050919050565b610f2a81610f15565b82525050565b6000602082019050610f456000830184610f21565b92915050565b600073ffffffffffffffffffffffffffffffffffffffff82169050919050565b6000610f7682610f4b565b9050919050565b610f8681610f6b565b8114610f9157600080fd5b50565b600081359050610fa381610f7d565b92915050565b600060208284031215610fbf57610fbe610ea8565b5b6000610fcd84828501610f94565b91505092915050565b610fdf81610eb2565b82525050565b6000602082019050610ffa6000830184610fd6565b92915050565b600080fd5b600080fd5b600080fd5b60008083601f84011261102557611024611000565b5b8235905067ffffffffffffffff81111561104257611041611005565b5b60208301915083600182028301111561105e5761105d61100a565b5b9250929050565b6000806000806040858703121561107f5761107e610ea8565b5b600085013567ffffffffffffffff81111561109d5761109c610ead565b5b6110a98782880161100f565b9450945050602085013567ffffffffffffffff8111156110cc576110cb610ead565b5b6110d88782880161100f565b925092505092959194509250565b6110ef81610f6b565b82525050565b600060208201905061110a60008301846110e6565b92915050565b600081519050919050565b600082825260208201905092915050565b60005b8381101561114a57808201518184015260208101905061112f565b60008484015250505050565b6000601f19601f8301169050919050565b600061117282611110565b61117c818561111b565b935061118c81856020860161112c565b61119581611156565b840191505092915050565b600060a0820190506111b560008301886110e6565b6111c26020830187610fd6565b81810360408301526111d48186611167565b905081810360608301526111e88185611167565b90506111f76080830184610f21565b9695505050505050565b60008083601f84011261121757611216611000565b5b8235905067ffffffffffffffff81111561123457611233611005565b5b6020830191508360018202830111156112505761124f61100a565b5b9250929050565b60008060008060006080868803121561127357611272610ea8565b5b600061128188828901610ed3565b955050602061129288828901610f94565b94505060406112a388828901610ed3565b935050606086013567ffffffffffffffff8111156112c4576112c3610ead565b5b6112d088828901611201565b92509250509295509295909350565b7f496e76616c696420616d6f756e74000000000000000000000000000000000000600082015250565b6000611315600e8361111b565b9150611320826112df565b602082019050919050565b6000602082019050818103600083015261134481611308565b9050919050565b7f4e487b7100000000000000000000000000000000000000000000000000000000600052601160045260246000fd5b600061138582610eb2565b91507fffffffffffffffffffffffffffffffffffffffffffffffffffffffffffffffff82036113b7576113b661134b565b5b600182019050919050565b7f4e487b7100000000000000000000000000000000000000000000000000000000600052604160045260246000fd5b7f4e487b7100000000000000000000000000000000000000000000000000000000600052602260045260246000fd5b6000600282049050600182168061143857607f821691505b60208210810361144b5761144a6113f1565b5b50919050565b60008190508160005260206000209050919050565b60006020601f8301049050919050565b600082821b905092915050565b6000600883026114b37fffffffffffffffffffffffffffffffffffffffffffffffffffffffffffffffff82611476565b6114bd8683611476565b95508019841693508086168417925050509392505050565b6000819050919050565b60006114fa6114f56114f084610eb2565b6114d5565b610eb2565b9050919050565b6000819050919050565b611514836114df565b61152861152082611501565b848454611483565b825550505050565b600090565b61153d611530565b61154881848461150b565b505050565b5b8181101561156c57611561600082611535565b60018101905061154e565b5050565b601f8211156115b15761158281611451565b61158b84611466565b8101602085101561159a578190505b6115ae6115a685611466565b83018261154d565b50505b505050565b600082821c905092915050565b60006115d4600019846008026115b6565b1980831691505092915050565b60006115ed83836115c3565b9150826002028217905092915050565b61160682611110565b67ffffffffffffffff81111561161f5761161e6113c2565b5b6116298254611420565b611634828285611570565b600060209050601f8311600181146116675760008415611655578287015190505b61165f85826115e1565b8655506116c7565b601f19841661167586611451565b60005b8281101561169d57848901518255600182019150602085019450602081019050611678565b868310156116ba57848901516116b6601f8916826115c3565b8355505b6001600288020188555050505b505050505050565b82818337600083830152505050565b60006116ea838561111b565b93506116f78385846116cf565b61170083611156565b840190509392505050565b60006060820190506117206000830188610fd6565b81810360208301526117338186886116de565b905081810360408301526117488184866116de565b90509695505050505050565b7f5377617020616c72656164792070726f63657373656400000000000000000000600082015250565b600061178a60168361111b565b915061179582611754565b602082019050919050565b600060208201905081810360008301526117b98161177d565b9050919050565b6000819050919050565b6117db6117d682610eb2565b6117c0565b82525050565b60008160601b9050919050565b60006117f9826117e1565b9050919050565b600061180b826117ee565b9050919050565b61182361181e82610f6b565b611800565b82525050565b600061183582866117ca565b6020820191506118458285611812565b60148201915061185582846117ca565b602082019150819050949350505050565b7f496e76616c69642072656c61796572207369676e617475726500000000000000600082015250565b600061189c60198361111b565b91506118a782611866565b602082019050919050565b600060208201905081810360008301526118cb8161188f565b9050919050565b600081905092915050565b50565b60006118ed6000836118d2565b91506118f8826118dd565b600082019050919050565b600061190e826118e0565b9150819050919050565b7f5472616e73666572206661696c65640000000000000000000000000000000000600082015250565b600061194e600f8361111b565b915061195982611918565b602082019050919050565b6000602082019050818103600083015261197d81611941565b9050919050565b7f4e487b7100000000000000000000000000000000000000000000000000000000600052602160045260246000fd5b6000819050919050565b6119c6816119b3565b82525050565b60006020820190506119e160008301846119bd565b92915050565b600060ff82169050919050565b6119fd816119e7565b82525050565b6000608082019050611a1860008301876119bd565b611a2560208301866119f4565b611a3260408301856119bd565b611a3f60608301846119bd565b9594505050505056fea26469706673582212202448e21ca2b182b1d688d06ca56563235481f37fbd07d4320db34d9cf067b40b64736f6c63430008180033",
  "linkReferences": {},
  "deployedLinkReferences": {}
}