{
  "_format": "hh-sol-artifact-1",
  "contractName": "EthLockVault",
  "sourceName": "contracts/EthLockVaultSimple.sol",
  "abi": [
    {
      "anonymous": false,
      "inputs": [
        {
          "indexed": true,
          "internalType": "uint256",
          "name": "swapId",
          "type": "uint256"
        },
        {
          "indexed": true,
          "internalType": "address",
          "name": "depositor",
          "type": "address"
        },
        {
          "indexed": false,
          "internalType": "uint256",
          "name": "amount",
          "type": "uint256"
        },
        {
          "indexed": false,
          "internalType": "string",
          "name": "toChain",
          "type": "string"
        },
        {
          "indexed": false,
          "internalType": "string",
          "name": "recipient",
          "type": "string"
        }
      ],
      "name": "DepositInitiated",
      "type": "event"
    },
    {
      "inputs": [
        {
          "internalType": "string",
          "name": "toChain",
          "type": "string"
        },
        {
          "internalType": "string",
          "name": "recipient",
          "type": "string"
        }
      ],
      "name": "deposit",
      "outputs": [
        {
          "internalType": "uint256",
          "name": "",
          "type": "uint256"
        }
      ],
      "stateMutability": "payable",
      "type": "function"
    },
    {
      "inputs": [
        {
          "internalType": "uint256",
          "name": "",
          "type": "uint256"
        }
      ],
      "name": "deposits",
      "outputs": [
        {
          "internalType": "address",
          "name": "depositor",
          "type": "address"
        },
        {
          "internalType": "uint256",
          "name": "amount",
          "type": "uint256"
        },
        {
          "internalType": "string",
          "name": "toChain",
          "type": "string"
        },
        {
          "internalType": "string",
          "name": "recipient",
          "type": "string"
        }
      ],
      "stateMutability": "view",
      "type": "function"
    },
    {
      "inputs": [],
      "name": "nextSwapId",
      "outputs": [
        {
          "internalType": "uint256",
          "name": "",
          "type": "uint256"
        }
      ],
      "stateMutability": "view",
      "type": "function"
    }
  ],
  "bytecode": "0x608060405234801561001057600080fd5b50610b9d806100206000396000f3fe6080604052600436106100345760003560e01c806368eb5155146100395780637a9b486d14610064578063b02c43d014610094575b600080fd5b34801561004557600080fd5b5061004e6100d4565b60405161005b919061046a565b60405180910390f35b61007e600480360381019061007991906104f4565b6100da565b60405161008b919061046a565b60405180910390f35b3480156100a057600080fd5b506100bb60048036038101906100b691906105a1565b6102f1565b6040516100cb949392919061069f565b60405180910390f35b60015481565b600080341161011e576040517f08c379a00000000000000000000000000000000000000000000000000000000081526004016101159061073e565b60405180910390fd5b60006001549050600160008154809291906101389061078d565b919050555060405180608001604052803373ffffffffffffffffffffffffffffffffffffffff16815260200134815260200187878080601f016020809104026020016040519081016040528093929190818152602001838380828437600081840152601f19601f82011690508083019250505050505050815260200185858080601f016020809104026020016040519081016040528093929190818152602001838380828437600081840152601f19601f8201169050808301925050505050505081525060008083815260200190815260200160002060008201518160000160006101000a81548173ffffffffffffffffffffffffffffffffffffffff021916908373ffffffffffffffffffffffffffffffffffffffff1602179055506020820151816001015560408201518160020190816102749190610a10565b50606082015181600301908161028a9190610a10565b509050503373ffffffffffffffffffffffffffffffffffffffff16817fb35a3204c9587fbc26a3045a32ea30ce307aa95813606801719fb3bff5e9e50834898989896040516102dd959493929190610b1e565b60405180910390a380915050949350505050565b60006020528060005260406000206000915090508060000160009054906101000a900473ffffffffffffffffffffffffffffffffffffffff169080600101549080600201805461034090610833565b80601f016020809104026020016040519081016040528092919081815260200182805461036c90610833565b80156103b95780601f1061038e576101008083540402835291602001916103b9565b820191906000526020600020905b81548152906001019060200180831161039c57829003601f168201915b5050505050908060030180546103ce90610833565b80601f01602080910402602001604051908101604052809291908181526020018280546103fa90610833565b80156104475780601f1061041c57610100808354040283529160200191610447565b820191906000526020600020905b81548152906001019060200180831161042a57829003601f168201915b5050505050905084565b6000819050919050565b61046481610451565b82525050565b600060208201905061047f600083018461045b565b92915050565b600080fd5b600080fd5b600080fd5b600080fd5b600080fd5b60008083601f8401126104b4576104b361048f565b5b8235905067ffffffffffffffff8111156104d1576104d0610494565b5b6020830191508360018202830111156104ed576104ec610499565b5b9250929050565b6000806000806040858703121561050e5761050d610485565b5b600085013567ffffffffffffffff81111561052c5761052b61048a565b5b6105388782880161049e565b9450945050602085013567ffffffffffffffff81111561055b5761055a61048a565b5b6105678782880161049e565b925092505092959194509250565b61057e81610451565b811461058957600080fd5b50565b60008135905061059b81610575565b92915050565b6000602082840312156105b7576105b6610485565b5b60006105c58482850161058c565b91505092915050565b600073ffffffffffffffffffffffffffffffffffffffff82169050919050565b60006105f9826105ce565b9050919050565b610609816105ee565b82525050565b600081519050919050565b600082825260208201905092915050565b60005b8381101561064957808201518184015260208101905061062e565b60008484015250505050565b6000601f19601f8301169050919050565b60006106718261060f565b61067b818561061a565b935061068b81856020860161062b565b61069481610655565b840191505092915050565b60006080820190506106b46000830187610600565b6106c1602083018661045b565b81810360408301526106d38185610666565b905081810360608301526106e78184610666565b905095945050505050565b7f4d7573742073656e642045544800000000000000000000000000000000000000600082015250565b6000610728600d8361061a565b9150610733826106f2565b602082019050919050565b600060208201905081810360008301526107578161071b565b9050919050565b7f4e487b7100000000000000000000000000000000000000000000000000000000600052601160045260246000fd5b600061079882610451565b91507fffffffffffffffffffffffffffffffffffffffffffffffffffffffffffffffff82036107ca576107c961075e565b5b600182019050919050565b7f4e487b7100000000000000000000000000000000000000000000000000000000600052604160045260246000fd5b7f4e487b7100000000000000000000000000000000000000000000000000000000600052602260045260246000fd5b6000600282049050600182168061084b57607f821691505b60208210810361085e5761085d610804565b5b50919050565b60008190508160005260206000209050919050565b60006020601f8301049050919050565b600082821b905092915050565b6000600883026108c67fffffffffffffffffffffffffffffffffffffffffffffffffffffffffffffffff82610889565b6108d08683610889565b95508019841693508086168417925050509392505050565b6000819050919050565b600061090d61090861090384610451565b6108e8565b610451565b9050919050565b6000819050919050565b610927836108f2565b61093b61093382610914565b848454610896565b825550505050565b600090565b610950610943565b61095b81848461091e565b505050565b5b8181101561097f57610974600082610948565b600181019050610961565b5050565b601f8211156109c45761099581610864565b61099e84610879565b810160208510156109ad578190505b6109c16109b985610879565b830182610960565b50505b505050565b600082821c905092915050565b60006109e7600019846008026109c9565b1980831691505092915050565b6000610a0083836109d6565b9150826002028217905092915050565b610a198261060f565b67ffffffffffffffff811115610a3257610a316107d5565b5b610a3c8254610833565b610a47828285610983565b600060209050601f831160018114610a7a5760008415610a68578287015190505b610a7285826109f4565b865550610ada565b601f198416610a8886610864565b60005b82811015610ab057848901518255600182019150602085019450602081019050610a8b565b86831015610acd5784890151610ac9601f8916826109d6565b8355505b6001600288020188555050505b505050505050565b82818337600083830152505050565b6000610afd838561061a565b9350610b0a838584610ae2565b610b1383610655565b840190509392505050565b6000606082019050610b33600083018861045b565b8181036020830152610b46818688610af1565b90508181036040830152610b5b818486610af1565b9050969550505050505056fea26469706673582212203aa2b3c7bde1ab8ce1628d08acce646fe26b9eeb4574616fe8d2e8aa033d6dbc64736f6c63430008180033",
  "linkReferences": {},
  "deployedLinkReferences": {}
}